{
  "_format": "hh-sol-artifact-1",
  "contractName": "TicketMaster",
  "sourceName": "contracts/TicketMaster.sol",
  "abi": [
    {
      "inputs": [],
      "stateMutability": "nonpayable",
      "type": "constructor"
    },
    {
      "inputs": [
        {
          "internalType": "address",
          "name": "sender",
          "type": "address"
        },
        {
          "internalType": "uint256",
          "name": "tokenId",
          "type": "uint256"
        },
        {
          "internalType": "address",
          "name": "owner",
          "type": "address"
        }
      ],
      "name": "ERC721IncorrectOwner",
      "type": "error"
    },
    {
      "inputs": [
        {
          "internalType": "address",
          "name": "operator",
          "type": "address"
        },
        {
          "internalType": "uint256",
          "name": "tokenId",
          "type": "uint256"
        }
      ],
      "name": "ERC721InsufficientApproval",
      "type": "error"
    },
    {
      "inputs": [
        {
          "internalType": "address",
          "name": "approver",
          "type": "address"
        }
      ],
      "name": "ERC721InvalidApprover",
      "type": "error"
    },
    {
      "inputs": [
        {
          "internalType": "address",
          "name": "operator",
          "type": "address"
        }
      ],
      "name": "ERC721InvalidOperator",
      "type": "error"
    },
    {
      "inputs": [
        {
          "internalType": "address",
          "name": "owner",
          "type": "address"
        }
      ],
      "name": "ERC721InvalidOwner",
      "type": "error"
    },
    {
      "inputs": [
        {
          "internalType": "address",
          "name": "receiver",
          "type": "address"
        }
      ],
      "name": "ERC721InvalidReceiver",
      "type": "error"
    },
    {
      "inputs": [
        {
          "internalType": "address",
          "name": "sender",
          "type": "address"
        }
      ],
      "name": "ERC721InvalidSender",
      "type": "error"
    },
    {
      "inputs": [
        {
          "internalType": "uint256",
          "name": "tokenId",
          "type": "uint256"
        }
      ],
      "name": "ERC721NonexistentToken",
      "type": "error"
    },
    {
      "anonymous": false,
      "inputs": [
        {
          "indexed": true,
          "internalType": "address",
          "name": "owner",
          "type": "address"
        },
        {
          "indexed": true,
          "internalType": "address",
          "name": "approved",
          "type": "address"
        },
        {
          "indexed": true,
          "internalType": "uint256",
          "name": "tokenId",
          "type": "uint256"
        }
      ],
      "name": "Approval",
      "type": "event"
    },
    {
      "anonymous": false,
      "inputs": [
        {
          "indexed": true,
          "internalType": "address",
          "name": "owner",
          "type": "address"
        },
        {
          "indexed": true,
          "internalType": "address",
          "name": "operator",
          "type": "address"
        },
        {
          "indexed": false,
          "internalType": "bool",
          "name": "approved",
          "type": "bool"
        }
      ],
      "name": "ApprovalForAll",
      "type": "event"
    },
    {
      "anonymous": false,
      "inputs": [
        {
          "indexed": true,
          "internalType": "address",
          "name": "from",
          "type": "address"
        },
        {
          "indexed": true,
          "internalType": "address",
          "name": "to",
          "type": "address"
        },
        {
          "indexed": true,
          "internalType": "uint256",
          "name": "tokenId",
          "type": "uint256"
        }
      ],
      "name": "Transfer",
      "type": "event"
    },
    {
      "inputs": [
        {
          "internalType": "address",
          "name": "to",
          "type": "address"
        },
        {
          "internalType": "uint256",
          "name": "tokenId",
          "type": "uint256"
        }
      ],
      "name": "approve",
      "outputs": [],
      "stateMutability": "nonpayable",
      "type": "function"
    },
    {
      "inputs": [
        {
          "internalType": "address",
          "name": "owner",
          "type": "address"
        }
      ],
      "name": "balanceOf",
      "outputs": [
        {
          "internalType": "uint256",
          "name": "",
          "type": "uint256"
        }
      ],
      "stateMutability": "view",
      "type": "function"
    },
    {
      "inputs": [
        {
          "internalType": "uint256",
          "name": "tokenId",
          "type": "uint256"
        }
      ],
      "name": "getApproved",
      "outputs": [
        {
          "internalType": "address",
          "name": "",
          "type": "address"
        }
      ],
      "stateMutability": "view",
      "type": "function"
    },
    {
      "inputs": [
        {
          "internalType": "uint256",
          "name": "_id",
          "type": "uint256"
        }
      ],
      "name": "getOccasion",
      "outputs": [
        {
          "components": [
            {
              "internalType": "uint256",
              "name": "id",
              "type": "uint256"
            },
            {
              "internalType": "string",
              "name": "name",
              "type": "string"
            },
            {
              "internalType": "uint256",
              "name": "cost",
              "type": "uint256"
            },
            {
              "internalType": "uint256",
              "name": "tickets",
              "type": "uint256"
            },
            {
              "internalType": "uint256",
              "name": "maxTickets",
              "type": "uint256"
            },
            {
              "internalType": "string",
              "name": "date",
              "type": "string"
            },
            {
              "internalType": "string",
              "name": "time",
              "type": "string"
            },
            {
              "internalType": "string",
              "name": "location",
              "type": "string"
            }
          ],
          "internalType": "struct TicketMaster.Occasion",
          "name": "",
          "type": "tuple"
        }
      ],
      "stateMutability": "view",
      "type": "function"
    },
    {
      "inputs": [
        {
          "internalType": "uint256",
          "name": "_id",
          "type": "uint256"
        }
      ],
      "name": "getSeatsTaken",
      "outputs": [
        {
          "internalType": "uint256[]",
          "name": "",
          "type": "uint256[]"
        }
      ],
      "stateMutability": "view",
      "type": "function"
    },
    {
      "inputs": [
        {
          "internalType": "uint256",
          "name": "",
          "type": "uint256"
        },
        {
          "internalType": "address",
          "name": "",
          "type": "address"
        }
      ],
      "name": "hasBought",
      "outputs": [
        {
          "internalType": "bool",
          "name": "",
          "type": "bool"
        }
      ],
      "stateMutability": "view",
      "type": "function"
    },
    {
      "inputs": [
        {
          "internalType": "address",
          "name": "owner",
          "type": "address"
        },
        {
          "internalType": "address",
          "name": "operator",
          "type": "address"
        }
      ],
      "name": "isApprovedForAll",
      "outputs": [
        {
          "internalType": "bool",
          "name": "",
          "type": "bool"
        }
      ],
      "stateMutability": "view",
      "type": "function"
    },
    {
      "inputs": [
        {
          "internalType": "string",
          "name": "_name",
          "type": "string"
        },
        {
          "internalType": "uint256",
          "name": "_cost",
          "type": "uint256"
        },
        {
          "internalType": "uint256",
          "name": "_maxTickets",
          "type": "uint256"
        },
        {
          "internalType": "string",
          "name": "_date",
          "type": "string"
        },
        {
          "internalType": "string",
          "name": "_time",
          "type": "string"
        },
        {
          "internalType": "string",
          "name": "_location",
          "type": "string"
        }
      ],
      "name": "list",
      "outputs": [],
      "stateMutability": "nonpayable",
      "type": "function"
    },
    {
      "inputs": [
        {
          "internalType": "uint256",
          "name": "_id",
          "type": "uint256"
        },
        {
          "internalType": "uint256",
          "name": "_seat",
          "type": "uint256"
        }
      ],
      "name": "mint",
      "outputs": [],
      "stateMutability": "payable",
      "type": "function"
    },
    {
      "inputs": [],
      "name": "name",
      "outputs": [
        {
          "internalType": "string",
          "name": "",
          "type": "string"
        }
      ],
      "stateMutability": "view",
      "type": "function"
    },
    {
      "inputs": [],
      "name": "owner",
      "outputs": [
        {
          "internalType": "address",
          "name": "",
          "type": "address"
        }
      ],
      "stateMutability": "view",
      "type": "function"
    },
    {
      "inputs": [
        {
          "internalType": "uint256",
          "name": "tokenId",
          "type": "uint256"
        }
      ],
      "name": "ownerOf",
      "outputs": [
        {
          "internalType": "address",
          "name": "",
          "type": "address"
        }
      ],
      "stateMutability": "view",
      "type": "function"
    },
    {
      "inputs": [
        {
          "internalType": "address",
          "name": "from",
          "type": "address"
        },
        {
          "internalType": "address",
          "name": "to",
          "type": "address"
        },
        {
          "internalType": "uint256",
          "name": "tokenId",
          "type": "uint256"
        }
      ],
      "name": "safeTransferFrom",
      "outputs": [],
      "stateMutability": "nonpayable",
      "type": "function"
    },
    {
      "inputs": [
        {
          "internalType": "address",
          "name": "from",
          "type": "address"
        },
        {
          "internalType": "address",
          "name": "to",
          "type": "address"
        },
        {
          "internalType": "uint256",
          "name": "tokenId",
          "type": "uint256"
        },
        {
          "internalType": "bytes",
          "name": "data",
          "type": "bytes"
        }
      ],
      "name": "safeTransferFrom",
      "outputs": [],
      "stateMutability": "nonpayable",
      "type": "function"
    },
    {
      "inputs": [
        {
          "internalType": "uint256",
          "name": "",
          "type": "uint256"
        },
        {
          "internalType": "uint256",
          "name": "",
          "type": "uint256"
        }
      ],
      "name": "seatTaken",
      "outputs": [
        {
          "internalType": "address",
          "name": "",
          "type": "address"
        }
      ],
      "stateMutability": "view",
      "type": "function"
    },
    {
      "inputs": [
        {
          "internalType": "address",
          "name": "operator",
          "type": "address"
        },
        {
          "internalType": "bool",
          "name": "approved",
          "type": "bool"
        }
      ],
      "name": "setApprovalForAll",
      "outputs": [],
      "stateMutability": "nonpayable",
      "type": "function"
    },
    {
      "inputs": [
        {
          "internalType": "bytes4",
          "name": "interfaceId",
          "type": "bytes4"
        }
      ],
      "name": "supportsInterface",
      "outputs": [
        {
          "internalType": "bool",
          "name": "",
          "type": "bool"
        }
      ],
      "stateMutability": "view",
      "type": "function"
    },
    {
      "inputs": [],
      "name": "symbol",
      "outputs": [
        {
          "internalType": "string",
          "name": "",
          "type": "string"
        }
      ],
      "stateMutability": "view",
      "type": "function"
    },
    {
      "inputs": [
        {
          "internalType": "uint256",
          "name": "tokenId",
          "type": "uint256"
        }
      ],
      "name": "tokenURI",
      "outputs": [
        {
          "internalType": "string",
          "name": "",
          "type": "string"
        }
      ],
      "stateMutability": "view",
      "type": "function"
    },
    {
      "inputs": [],
      "name": "totalOccasions",
      "outputs": [
        {
          "internalType": "uint256",
          "name": "",
          "type": "uint256"
        }
      ],
      "stateMutability": "view",
      "type": "function"
    },
    {
      "inputs": [],
      "name": "totalSupply",
      "outputs": [
        {
          "internalType": "uint256",
          "name": "",
          "type": "uint256"
        }
      ],
      "stateMutability": "view",
      "type": "function"
    },
    {
      "inputs": [
        {
          "internalType": "address",
          "name": "from",
          "type": "address"
        },
        {
          "internalType": "address",
          "name": "to",
          "type": "address"
        },
        {
          "internalType": "uint256",
          "name": "tokenId",
          "type": "uint256"
        }
      ],
      "name": "transferFrom",
      "outputs": [],
      "stateMutability": "nonpayable",
      "type": "function"
    },
    {
      "inputs": [],
      "name": "withdraw",
      "outputs": [],
      "stateMutability": "nonpayable",
      "type": "function"
    }
  ],
  "bytecode": "0x60806040523480156200001157600080fd5b506040518060400160405280600581526020017f546f6b656e0000000000000000000000000000000000000000000000000000008152506040518060400160405280600681526020017f5469636b6574000000000000000000000000000000000000000000000000000081525081600090816200008f919062000365565b508060019081620000a1919062000365565b50505033600660006101000a81548173ffffffffffffffffffffffffffffffffffffffff021916908373ffffffffffffffffffffffffffffffffffffffff1602179055506200044c565b600081519050919050565b7f4e487b7100000000000000000000000000000000000000000000000000000000600052604160045260246000fd5b7f4e487b7100000000000000000000000000000000000000000000000000000000600052602260045260246000fd5b600060028204905060018216806200016d57607f821691505b60208210810362000183576200018262000125565b5b50919050565b60008190508160005260206000209050919050565b60006020601f8301049050919050565b600082821b905092915050565b600060088302620001ed7fffffffffffffffffffffffffffffffffffffffffffffffffffffffffffffffff82620001ae565b620001f98683620001ae565b95508019841693508086168417925050509392505050565b6000819050919050565b6000819050919050565b600062000246620002406200023a8462000211565b6200021b565b62000211565b9050919050565b6000819050919050565b620002628362000225565b6200027a62000271826200024d565b848454620001bb565b825550505050565b600090565b6200029162000282565b6200029e81848462000257565b505050565b5b81811015620002c657620002ba60008262000287565b600181019050620002a4565b5050565b601f8211156200031557620002df8162000189565b620002ea846200019e565b81016020851015620002fa578190505b6200031262000309856200019e565b830182620002a3565b50505b505050565b600082821c905092915050565b60006200033a600019846008026200031a565b1980831691505092915050565b600062000355838362000327565b9150826002028217905092915050565b6200037082620000eb565b67ffffffffffffffff8111156200038c576200038b620000f6565b5b62000398825462000154565b620003a5828285620002ca565b600060209050601f831160018114620003dd5760008415620003c8578287015190505b620003d4858262000347565b86555062000444565b601f198416620003ed8662000189565b60005b828110156200041757848901518255600182019150602085019450602081019050620003f0565b8683101562000437578489015162000433601f89168262000327565b8355505b6001600288020188555050505b505050505050565b6130ad806200045c6000396000f3fe6080604052600436106101405760003560e01c806370a08231116100b65780639cb04aef1161006f5780639cb04aef14610461578063a22cb4651461049e578063af296da1146104c7578063b88d4fde14610504578063c87b56dd1461052d578063e985e9c51461056a57610140565b806370a082311461033d57806374bc86561461037a5780638da5cb5b146103b7578063953865c1146103e257806395d89b411461040d5780639a382f0f1461043857610140565b806318160ddd1161010857806318160ddd146102505780631b2ef1ca1461027b57806323b872dd146102975780633ccfd60b146102c057806342842e0e146102d75780636352211e1461030057610140565b806301ffc9a71461014557806306fdde0314610182578063081812fc146101ad578063095ea7b3146101ea5780630ef7ec7414610213575b600080fd5b34801561015157600080fd5b5061016c60048036038101906101679190612159565b6105a7565b60405161017991906121a1565b60405180910390f35b34801561018e57600080fd5b50610197610689565b6040516101a4919061224c565b60405180910390f35b3480156101b957600080fd5b506101d460048036038101906101cf91906122a4565b61071b565b6040516101e19190612312565b60405180910390f35b3480156101f657600080fd5b50610211600480360381019061020c9190612359565b610737565b005b34801561021f57600080fd5b5061023a600480360381019061023591906122a4565b61074d565b6040516102479190612457565b60405180910390f35b34801561025c57600080fd5b506102656107b8565b6040516102729190612488565b60405180910390f35b610295600480360381019061029091906124a3565b6107be565b005b3480156102a357600080fd5b506102be60048036038101906102b991906124e3565b6109f9565b005b3480156102cc57600080fd5b506102d5610afb565b005b3480156102e357600080fd5b506102fe60048036038101906102f991906124e3565b610bf0565b005b34801561030c57600080fd5b50610327600480360381019061032291906122a4565b610c10565b6040516103349190612312565b60405180910390f35b34801561034957600080fd5b50610364600480360381019061035f9190612536565b610c22565b6040516103719190612488565b60405180910390f35b34801561038657600080fd5b506103a1600480360381019061039c91906122a4565b610cdc565b6040516103ae9190612672565b60405180910390f35b3480156103c357600080fd5b506103cc610f7a565b6040516103d99190612312565b60405180910390f35b3480156103ee57600080fd5b506103f7610fa0565b6040516104049190612488565b60405180910390f35b34801561041957600080fd5b50610422610fa6565b60405161042f919061224c565b60405180910390f35b34801561044457600080fd5b5061045f600480360381019061045a91906127c9565b611038565b005b34801561046d57600080fd5b50610488600480360381019061048391906128c6565b61118c565b60405161049591906121a1565b60405180910390f35b3480156104aa57600080fd5b506104c560048036038101906104c09190612932565b6111bb565b005b3480156104d357600080fd5b506104ee60048036038101906104e991906124a3565b6111d1565b6040516104fb9190612312565b60405180910390f35b34801561051057600080fd5b5061052b60048036038101906105269190612a13565b611213565b005b34801561053957600080fd5b50610554600480360381019061054f91906122a4565b611230565b604051610561919061224c565b60405180910390f35b34801561057657600080fd5b50610591600480360381019061058c9190612a96565b611299565b60405161059e91906121a1565b60405180910390f35b60007f80ac58cd000000000000000000000000000000000000000000000000000000007bffffffffffffffffffffffffffffffffffffffffffffffffffffffff1916827bffffffffffffffffffffffffffffffffffffffffffffffffffffffff1916148061067257507f5b5e139f000000000000000000000000000000000000000000000000000000007bffffffffffffffffffffffffffffffffffffffffffffffffffffffff1916827bffffffffffffffffffffffffffffffffffffffffffffffffffffffff1916145b8061068257506106818261132d565b5b9050919050565b60606000805461069890612b05565b80601f01602080910402602001604051908101604052809291908181526020018280546106c490612b05565b80156107115780601f106106e657610100808354040283529160200191610711565b820191906000526020600020905b8154815290600101906020018083116106f457829003601f168201915b5050505050905090565b600061072682611397565b506107308261141f565b9050919050565b610749828261074461145c565b611464565b5050565b6060600c60008381526020019081526020016000208054806020026020016040519081016040528092919081815260200182805480156107ac57602002820191906000526020600020905b815481526020019060010190808311610798575b50505050509050919050565b60085481565b600082036107cb57600080fd5b6007548211156107da57600080fd5b60096000838152602001908152602001600020600201543410156107fd57600080fd5b600073ffffffffffffffffffffffffffffffffffffffff16600a6000848152602001908152602001600020600083815260200190815260200160002060009054906101000a900473ffffffffffffffffffffffffffffffffffffffff1673ffffffffffffffffffffffffffffffffffffffff161461087a57600080fd5b600960008381526020019081526020016000206004015481111561089d57600080fd5b600860008154809291906108b090612b65565b919050555060016009600084815260200190815260200160002060030160008282546108dc9190612bad565b925050819055506001600b600084815260200190815260200160002060003373ffffffffffffffffffffffffffffffffffffffff1673ffffffffffffffffffffffffffffffffffffffff16815260200190815260200160002060006101000a81548160ff02191690831515021790555033600a6000848152602001908152602001600020600083815260200190815260200160002060006101000a81548173ffffffffffffffffffffffffffffffffffffffff021916908373ffffffffffffffffffffffffffffffffffffffff160217905550600c60008381526020019081526020016000208190806001815401808255809150506001900390600052602060002001600090919091909150556109f533600854611476565b5050565b600073ffffffffffffffffffffffffffffffffffffffff168273ffffffffffffffffffffffffffffffffffffffff1603610a6b5760006040517f64a0ae92000000000000000000000000000000000000000000000000000000008152600401610a629190612312565b60405180910390fd5b6000610a7f8383610a7a61145c565b611494565b90508373ffffffffffffffffffffffffffffffffffffffff168173ffffffffffffffffffffffffffffffffffffffff1614610af5578382826040517f64283d7b000000000000000000000000000000000000000000000000000000008152600401610aec93929190612be1565b60405180910390fd5b50505050565b600660009054906101000a900473ffffffffffffffffffffffffffffffffffffffff1673ffffffffffffffffffffffffffffffffffffffff163373ffffffffffffffffffffffffffffffffffffffff1614610b5557600080fd5b6000600660009054906101000a900473ffffffffffffffffffffffffffffffffffffffff1673ffffffffffffffffffffffffffffffffffffffff1647604051610b9d90612c49565b60006040518083038185875af1925050503d8060008114610bda576040519150601f19603f3d011682016040523d82523d6000602084013e610bdf565b606091505b5050905080610bed57600080fd5b50565b610c0b83838360405180602001604052806000815250611213565b505050565b6000610c1b82611397565b9050919050565b60008073ffffffffffffffffffffffffffffffffffffffff168273ffffffffffffffffffffffffffffffffffffffff1603610c955760006040517f89c62b64000000000000000000000000000000000000000000000000000000008152600401610c8c9190612312565b60405180910390fd5b600360008373ffffffffffffffffffffffffffffffffffffffff1673ffffffffffffffffffffffffffffffffffffffff168152602001908152602001600020549050919050565b610ce46120a8565b600960008381526020019081526020016000206040518061010001604052908160008201548152602001600182018054610d1d90612b05565b80601f0160208091040260200160405190810160405280929190818152602001828054610d4990612b05565b8015610d965780601f10610d6b57610100808354040283529160200191610d96565b820191906000526020600020905b815481529060010190602001808311610d7957829003601f168201915b50505050508152602001600282015481526020016003820154815260200160048201548152602001600582018054610dcd90612b05565b80601f0160208091040260200160405190810160405280929190818152602001828054610df990612b05565b8015610e465780601f10610e1b57610100808354040283529160200191610e46565b820191906000526020600020905b815481529060010190602001808311610e2957829003601f168201915b50505050508152602001600682018054610e5f90612b05565b80601f0160208091040260200160405190810160405280929190818152602001828054610e8b90612b05565b8015610ed85780601f10610ead57610100808354040283529160200191610ed8565b820191906000526020600020905b815481529060010190602001808311610ebb57829003601f168201915b50505050508152602001600782018054610ef190612b05565b80601f0160208091040260200160405190810160405280929190818152602001828054610f1d90612b05565b8015610f6a5780601f10610f3f57610100808354040283529160200191610f6a565b820191906000526020600020905b815481529060010190602001808311610f4d57829003601f168201915b5050505050815250509050919050565b600660009054906101000a900473ffffffffffffffffffffffffffffffffffffffff1681565b60075481565b606060018054610fb590612b05565b80601f0160208091040260200160405190810160405280929190818152602001828054610fe190612b05565b801561102e5780601f106110035761010080835404028352916020019161102e565b820191906000526020600020905b81548152906001019060200180831161101157829003601f168201915b5050505050905090565b600660009054906101000a900473ffffffffffffffffffffffffffffffffffffffff1673ffffffffffffffffffffffffffffffffffffffff163373ffffffffffffffffffffffffffffffffffffffff161461109257600080fd5b600760008154809291906110a590612b65565b9190505550600060405180610100016040528060075481526020018881526020018781526020018681526020018681526020018581526020018481526020018381525090508060096000600754815260200190815260200160002060008201518160000155602082015181600101908161111f9190612e0a565b5060408201518160020155606082015181600301556080820151816004015560a08201518160050190816111539190612e0a565b5060c08201518160060190816111699190612e0a565b5060e082015181600701908161117f9190612e0a565b5090505050505050505050565b600b6020528160005260406000206020528060005260406000206000915091509054906101000a900460ff1681565b6111cd6111c661145c565b83836116ae565b5050565b600a6020528160005260406000206020528060005260406000206000915091509054906101000a900473ffffffffffffffffffffffffffffffffffffffff1681565b61121e8484846109f9565b61122a8484848461181d565b50505050565b606061123b82611397565b5060006112466119d4565b905060008151116112665760405180602001604052806000815250611291565b80611270846119eb565b604051602001611281929190612f18565b6040516020818303038152906040525b915050919050565b6000600560008473ffffffffffffffffffffffffffffffffffffffff1673ffffffffffffffffffffffffffffffffffffffff16815260200190815260200160002060008373ffffffffffffffffffffffffffffffffffffffff1673ffffffffffffffffffffffffffffffffffffffff16815260200190815260200160002060009054906101000a900460ff16905092915050565b60007f01ffc9a7000000000000000000000000000000000000000000000000000000007bffffffffffffffffffffffffffffffffffffffffffffffffffffffff1916827bffffffffffffffffffffffffffffffffffffffffffffffffffffffff1916149050919050565b6000806113a383611ab9565b9050600073ffffffffffffffffffffffffffffffffffffffff168173ffffffffffffffffffffffffffffffffffffffff160361141657826040517f7e27328900000000000000000000000000000000000000000000000000000000815260040161140d9190612488565b60405180910390fd5b80915050919050565b60006004600083815260200190815260200160002060009054906101000a900473ffffffffffffffffffffffffffffffffffffffff169050919050565b600033905090565b6114718383836001611af6565b505050565b611490828260405180602001604052806000815250611cbb565b5050565b6000806114a084611ab9565b9050600073ffffffffffffffffffffffffffffffffffffffff168373ffffffffffffffffffffffffffffffffffffffff16146114e2576114e1818486611cd7565b5b600073ffffffffffffffffffffffffffffffffffffffff168173ffffffffffffffffffffffffffffffffffffffff161461157357611524600085600080611af6565b6001600360008373ffffffffffffffffffffffffffffffffffffffff1673ffffffffffffffffffffffffffffffffffffffff168152602001908152602001600020600082825403925050819055505b600073ffffffffffffffffffffffffffffffffffffffff168573ffffffffffffffffffffffffffffffffffffffff16146115f6576001600360008773ffffffffffffffffffffffffffffffffffffffff1673ffffffffffffffffffffffffffffffffffffffff168152602001908152602001600020600082825401925050819055505b846002600086815260200190815260200160002060006101000a81548173ffffffffffffffffffffffffffffffffffffffff021916908373ffffffffffffffffffffffffffffffffffffffff160217905550838573ffffffffffffffffffffffffffffffffffffffff168273ffffffffffffffffffffffffffffffffffffffff167fddf252ad1be2c89b69c2b068fc378daa952ba7f163c4a11628f55a4df523b3ef60405160405180910390a4809150509392505050565b600073ffffffffffffffffffffffffffffffffffffffff168273ffffffffffffffffffffffffffffffffffffffff160361171f57816040517f5b08ba180000000000000000000000000000000000000000000000000000000081526004016117169190612312565b60405180910390fd5b80600560008573ffffffffffffffffffffffffffffffffffffffff1673ffffffffffffffffffffffffffffffffffffffff16815260200190815260200160002060008473ffffffffffffffffffffffffffffffffffffffff1673ffffffffffffffffffffffffffffffffffffffff16815260200190815260200160002060006101000a81548160ff0219169083151502179055508173ffffffffffffffffffffffffffffffffffffffff168373ffffffffffffffffffffffffffffffffffffffff167f17307eab39ab6107e8899845ad3d59bd9653f200f220920489ca2b5937696c318360405161181091906121a1565b60405180910390a3505050565b60008373ffffffffffffffffffffffffffffffffffffffff163b11156119ce578273ffffffffffffffffffffffffffffffffffffffff1663150b7a0261186161145c565b8685856040518563ffffffff1660e01b81526004016118839493929190612f91565b6020604051808303816000875af19250505080156118bf57506040513d601f19601f820116820180604052508101906118bc9190612ff2565b60015b611943573d80600081146118ef576040519150601f19603f3d011682016040523d82523d6000602084013e6118f4565b606091505b50600081510361193b57836040517f64a0ae920000000000000000000000000000000000000000000000000000000081526004016119329190612312565b60405180910390fd5b805181602001fd5b63150b7a0260e01b7bffffffffffffffffffffffffffffffffffffffffffffffffffffffff1916817bffffffffffffffffffffffffffffffffffffffffffffffffffffffff1916146119cc57836040517f64a0ae920000000000000000000000000000000000000000000000000000000081526004016119c39190612312565b60405180910390fd5b505b50505050565b606060405180602001604052806000815250905090565b6060600060016119fa84611d9b565b01905060008167ffffffffffffffff811115611a1957611a1861269e565b5b6040519080825280601f01601f191660200182016040528015611a4b5781602001600182028036833780820191505090505b509050600082602001820190505b600115611aae578080600190039150507f3031323334353637383961626364656600000000000000000000000000000000600a86061a8153600a8581611aa257611aa161301f565b5b04945060008503611a59575b819350505050919050565b60006002600083815260200190815260200160002060009054906101000a900473ffffffffffffffffffffffffffffffffffffffff169050919050565b8080611b2f5750600073ffffffffffffffffffffffffffffffffffffffff168273ffffffffffffffffffffffffffffffffffffffff1614155b15611c63576000611b3f84611397565b9050600073ffffffffffffffffffffffffffffffffffffffff168373ffffffffffffffffffffffffffffffffffffffff1614158015611baa57508273ffffffffffffffffffffffffffffffffffffffff168173ffffffffffffffffffffffffffffffffffffffff1614155b8015611bbd5750611bbb8184611299565b155b15611bff57826040517fa9fbf51f000000000000000000000000000000000000000000000000000000008152600401611bf69190612312565b60405180910390fd5b8115611c6157838573ffffffffffffffffffffffffffffffffffffffff168273ffffffffffffffffffffffffffffffffffffffff167f8c5be1e5ebec7d5bd14f71427d1e84f3dd0314c0f7b2291e5b200ac8c7c3b92560405160405180910390a45b505b836004600085815260200190815260200160002060006101000a81548173ffffffffffffffffffffffffffffffffffffffff021916908373ffffffffffffffffffffffffffffffffffffffff16021790555050505050565b611cc58383611eee565b611cd2600084848461181d565b505050565b611ce2838383611fe7565b611d9657600073ffffffffffffffffffffffffffffffffffffffff168373ffffffffffffffffffffffffffffffffffffffff1603611d5757806040517f7e273289000000000000000000000000000000000000000000000000000000008152600401611d4e9190612488565b60405180910390fd5b81816040517f177e802f000000000000000000000000000000000000000000000000000000008152600401611d8d92919061304e565b60405180910390fd5b505050565b600080600090507a184f03e93ff9f4daa797ed6e38ed64bf6a1f0100000000000000008310611df9577a184f03e93ff9f4daa797ed6e38ed64bf6a1f0100000000000000008381611def57611dee61301f565b5b0492506040810190505b6d04ee2d6d415b85acef81000000008310611e36576d04ee2d6d415b85acef81000000008381611e2c57611e2b61301f565b5b0492506020810190505b662386f26fc100008310611e6557662386f26fc100008381611e5b57611e5a61301f565b5b0492506010810190505b6305f5e1008310611e8e576305f5e1008381611e8457611e8361301f565b5b0492506008810190505b6127108310611eb3576127108381611ea957611ea861301f565b5b0492506004810190505b60648310611ed65760648381611ecc57611ecb61301f565b5b0492506002810190505b600a8310611ee5576001810190505b80915050919050565b600073ffffffffffffffffffffffffffffffffffffffff168273ffffffffffffffffffffffffffffffffffffffff1603611f605760006040517f64a0ae92000000000000000000000000000000000000000000000000000000008152600401611f579190612312565b60405180910390fd5b6000611f6e83836000611494565b9050600073ffffffffffffffffffffffffffffffffffffffff168173ffffffffffffffffffffffffffffffffffffffff1614611fe25760006040517f73c6ac6e000000000000000000000000000000000000000000000000000000008152600401611fd99190612312565b60405180910390fd5b505050565b60008073ffffffffffffffffffffffffffffffffffffffff168373ffffffffffffffffffffffffffffffffffffffff161415801561209f57508273ffffffffffffffffffffffffffffffffffffffff168473ffffffffffffffffffffffffffffffffffffffff161480612060575061205f8484611299565b5b8061209e57508273ffffffffffffffffffffffffffffffffffffffff166120868361141f565b73ffffffffffffffffffffffffffffffffffffffff16145b5b90509392505050565b60405180610100016040528060008152602001606081526020016000815260200160008152602001600081526020016060815260200160608152602001606081525090565b6000604051905090565b600080fd5b600080fd5b60007fffffffff0000000000000000000000000000000000000000000000000000000082169050919050565b61213681612101565b811461214157600080fd5b50565b6000813590506121538161212d565b92915050565b60006020828403121561216f5761216e6120f7565b5b600061217d84828501612144565b91505092915050565b60008115159050919050565b61219b81612186565b82525050565b60006020820190506121b66000830184612192565b92915050565b600081519050919050565b600082825260208201905092915050565b60005b838110156121f65780820151818401526020810190506121db565b60008484015250505050565b6000601f19601f8301169050919050565b600061221e826121bc565b61222881856121c7565b93506122388185602086016121d8565b61224181612202565b840191505092915050565b600060208201905081810360008301526122668184612213565b905092915050565b6000819050919050565b6122818161226e565b811461228c57600080fd5b50565b60008135905061229e81612278565b92915050565b6000602082840312156122ba576122b96120f7565b5b60006122c88482850161228f565b91505092915050565b600073ffffffffffffffffffffffffffffffffffffffff82169050919050565b60006122fc826122d1565b9050919050565b61230c816122f1565b82525050565b60006020820190506123276000830184612303565b92915050565b612336816122f1565b811461234157600080fd5b50565b6000813590506123538161232d565b92915050565b600080604083850312156123705761236f6120f7565b5b600061237e85828601612344565b925050602061238f8582860161228f565b9150509250929050565b600081519050919050565b600082825260208201905092915050565b6000819050602082019050919050565b6123ce8161226e565b82525050565b60006123e083836123c5565b60208301905092915050565b6000602082019050919050565b600061240482612399565b61240e81856123a4565b9350612419836123b5565b8060005b8381101561244a57815161243188826123d4565b975061243c836123ec565b92505060018101905061241d565b5085935050505092915050565b6000602082019050818103600083015261247181846123f9565b905092915050565b6124828161226e565b82525050565b600060208201905061249d6000830184612479565b92915050565b600080604083850312156124ba576124b96120f7565b5b60006124c88582860161228f565b92505060206124d98582860161228f565b9150509250929050565b6000806000606084860312156124fc576124fb6120f7565b5b600061250a86828701612344565b935050602061251b86828701612344565b925050604061252c8682870161228f565b9150509250925092565b60006020828403121561254c5761254b6120f7565b5b600061255a84828501612344565b91505092915050565b600082825260208201905092915050565b600061257f826121bc565b6125898185612563565b93506125998185602086016121d8565b6125a281612202565b840191505092915050565b6000610100830160008301516125c660008601826123c5565b50602083015184820360208601526125de8282612574565b91505060408301516125f360408601826123c5565b50606083015161260660608601826123c5565b50608083015161261960808601826123c5565b5060a083015184820360a08601526126318282612574565b91505060c083015184820360c086015261264b8282612574565b91505060e083015184820360e08601526126658282612574565b9150508091505092915050565b6000602082019050818103600083015261268c81846125ad565b905092915050565b600080fd5b600080fd5b7f4e487b7100000000000000000000000000000000000000000000000000000000600052604160045260246000fd5b6126d682612202565b810181811067ffffffffffffffff821117156126f5576126f461269e565b5b80604052505050565b60006127086120ed565b905061271482826126cd565b919050565b600067ffffffffffffffff8211156127345761273361269e565b5b61273d82612202565b9050602081019050919050565b82818337600083830152505050565b600061276c61276784612719565b6126fe565b90508281526020810184848401111561278857612787612699565b5b61279384828561274a565b509392505050565b600082601f8301126127b0576127af612694565b5b81356127c0848260208601612759565b91505092915050565b60008060008060008060c087890312156127e6576127e56120f7565b5b600087013567ffffffffffffffff811115612804576128036120fc565b5b61281089828a0161279b565b965050602061282189828a0161228f565b955050604061283289828a0161228f565b945050606087013567ffffffffffffffff811115612853576128526120fc565b5b61285f89828a0161279b565b935050608087013567ffffffffffffffff8111156128805761287f6120fc565b5b61288c89828a0161279b565b92505060a087013567ffffffffffffffff8111156128ad576128ac6120fc565b5b6128b989828a0161279b565b9150509295509295509295565b600080604083850312156128dd576128dc6120f7565b5b60006128eb8582860161228f565b92505060206128fc85828601612344565b9150509250929050565b61290f81612186565b811461291a57600080fd5b50565b60008135905061292c81612906565b92915050565b60008060408385031215612949576129486120f7565b5b600061295785828601612344565b92505060206129688582860161291d565b9150509250929050565b600067ffffffffffffffff82111561298d5761298c61269e565b5b61299682612202565b9050602081019050919050565b60006129b66129b184612972565b6126fe565b9050828152602081018484840111156129d2576129d1612699565b5b6129dd84828561274a565b509392505050565b600082601f8301126129fa576129f9612694565b5b8135612a0a8482602086016129a3565b91505092915050565b60008060008060808587031215612a2d57612a2c6120f7565b5b6000612a3b87828801612344565b9450506020612a4c87828801612344565b9350506040612a5d8782880161228f565b925050606085013567ffffffffffffffff811115612a7e57612a7d6120fc565b5b612a8a878288016129e5565b91505092959194509250565b60008060408385031215612aad57612aac6120f7565b5b6000612abb85828601612344565b9250506020612acc85828601612344565b9150509250929050565b7f4e487b7100000000000000000000000000000000000000000000000000000000600052602260045260246000fd5b60006002820490506001821680612b1d57607f821691505b602082108103612b3057612b2f612ad6565b5b50919050565b7f4e487b7100000000000000000000000000000000000000000000000000000000600052601160045260246000fd5b6000612b708261226e565b91507fffffffffffffffffffffffffffffffffffffffffffffffffffffffffffffffff8203612ba257612ba1612b36565b5b600182019050919050565b6000612bb88261226e565b9150612bc38361226e565b9250828203905081811115612bdb57612bda612b36565b5b92915050565b6000606082019050612bf66000830186612303565b612c036020830185612479565b612c106040830184612303565b949350505050565b600081905092915050565b50565b6000612c33600083612c18565b9150612c3e82612c23565b600082019050919050565b6000612c5482612c26565b9150819050919050565b60008190508160005260206000209050919050565b60006020601f8301049050919050565b600082821b905092915050565b600060088302612cc07fffffffffffffffffffffffffffffffffffffffffffffffffffffffffffffffff82612c83565b612cca8683612c83565b95508019841693508086168417925050509392505050565b6000819050919050565b6000612d07612d02612cfd8461226e565b612ce2565b61226e565b9050919050565b6000819050919050565b612d2183612cec565b612d35612d2d82612d0e565b848454612c90565b825550505050565b600090565b612d4a612d3d565b612d55818484612d18565b505050565b5b81811015612d7957612d6e600082612d42565b600181019050612d5b565b5050565b601f821115612dbe57612d8f81612c5e565b612d9884612c73565b81016020851015612da7578190505b612dbb612db385612c73565b830182612d5a565b50505b505050565b600082821c905092915050565b6000612de160001984600802612dc3565b1980831691505092915050565b6000612dfa8383612dd0565b9150826002028217905092915050565b612e13826121bc565b67ffffffffffffffff811115612e2c57612e2b61269e565b5b612e368254612b05565b612e41828285612d7d565b600060209050601f831160018114612e745760008415612e62578287015190505b612e6c8582612dee565b865550612ed4565b601f198416612e8286612c5e565b60005b82811015612eaa57848901518255600182019150602085019450602081019050612e85565b86831015612ec75784890151612ec3601f891682612dd0565b8355505b6001600288020188555050505b505050505050565b600081905092915050565b6000612ef2826121bc565b612efc8185612edc565b9350612f0c8185602086016121d8565b80840191505092915050565b6000612f248285612ee7565b9150612f308284612ee7565b91508190509392505050565b600081519050919050565b600082825260208201905092915050565b6000612f6382612f3c565b612f6d8185612f47565b9350612f7d8185602086016121d8565b612f8681612202565b840191505092915050565b6000608082019050612fa66000830187612303565b612fb36020830186612303565b612fc06040830185612479565b8181036060830152612fd28184612f58565b905095945050505050565b600081519050612fec8161212d565b92915050565b600060208284031215613008576130076120f7565b5b600061301684828501612fdd565b91505092915050565b7f4e487b7100000000000000000000000000000000000000000000000000000000600052601260045260246000fd5b60006040820190506130636000830185612303565b6130706020830184612479565b939250505056fea26469706673582212204e07fd0589266302f85e5c4b96b0f8082de5b016c491c331f9b5dba9a898937964736f6c63430008180033",
  "linkReferences": {},
  "deployedLinkReferences": {}
}